{
  "contractName": "PostFactory",
  "abi": [
    {
      "anonymous": false,
      "inputs": [
        {
          "indexed": false,
          "internalType": "string",
          "name": "description",
          "type": "string"
        },
        {
          "indexed": false,
          "internalType": "uint256",
          "name": "id",
          "type": "uint256"
        },
        {
          "indexed": false,
          "internalType": "address",
          "name": "owner",
          "type": "address"
        }
      ],
      "name": "CreatedPost",
      "type": "event"
    },
    {
      "anonymous": false,
      "inputs": [
        {
          "indexed": true,
          "internalType": "address",
          "name": "previousOwner",
          "type": "address"
        },
        {
          "indexed": true,
          "internalType": "address",
          "name": "newOwner",
          "type": "address"
        }
      ],
      "name": "OwnershipTransferred",
      "type": "event"
    },
    {
      "inputs": [],
      "name": "owner",
      "outputs": [
        {
          "internalType": "address",
          "name": "",
          "type": "address"
        }
      ],
      "stateMutability": "view",
      "type": "function",
      "constant": true
    },
    {
      "inputs": [
        {
          "internalType": "uint256",
          "name": "",
          "type": "uint256"
        }
      ],
      "name": "postOwners",
      "outputs": [
        {
          "internalType": "address",
          "name": "",
          "type": "address"
        }
      ],
      "stateMutability": "view",
      "type": "function",
      "constant": true
    },
    {
      "inputs": [
        {
          "internalType": "address",
          "name": "",
          "type": "address"
        }
      ],
      "name": "posts",
      "outputs": [
        {
          "internalType": "string",
          "name": "description",
          "type": "string"
        },
        {
          "internalType": "uint256",
          "name": "id",
          "type": "uint256"
        },
        {
          "internalType": "address",
          "name": "owner",
          "type": "address"
        }
      ],
      "stateMutability": "view",
      "type": "function",
      "constant": true
    },
    {
      "inputs": [],
      "name": "renounceOwnership",
      "outputs": [],
      "stateMutability": "nonpayable",
      "type": "function"
    },
    {
      "inputs": [
        {
          "internalType": "address",
          "name": "newOwner",
          "type": "address"
        }
      ],
      "name": "transferOwnership",
      "outputs": [],
      "stateMutability": "nonpayable",
      "type": "function"
    },
    {
      "inputs": [
        {
          "internalType": "string",
          "name": "_description",
          "type": "string"
        }
      ],
      "name": "createPost",
      "outputs": [],
      "stateMutability": "nonpayable",
      "type": "function"
    }
  ],
  "bytecode": "0x608060405234801561001057600080fd5b5061002d61002261003260201b60201c565b61003a60201b60201c565b6100fe565b600033905090565b60008060009054906101000a900473ffffffffffffffffffffffffffffffffffffffff169050816000806101000a81548173ffffffffffffffffffffffffffffffffffffffff021916908373ffffffffffffffffffffffffffffffffffffffff1602179055508173ffffffffffffffffffffffffffffffffffffffff168173ffffffffffffffffffffffffffffffffffffffff167f8be0079c531659141344cd1fd0a4f28419497f9722a3daafe3b4186f6b6457e060405160405180910390a35050565b610bb18061010d6000396000f3fe608060405234801561001057600080fd5b50600436106100625760003560e01c806303eaf31714610067578063715018a614610099578063735f57e4146100a35780638da5cb5b146100d3578063c7303c61146100f1578063f2fde38b1461010d575b600080fd5b610081600480360381019061007c9190610688565b610129565b60405161009093929190610776565b60405180910390f35b6100a16101fb565b005b6100bd60048036038101906100b891906107e0565b61020f565b6040516100ca919061080d565b60405180910390f35b6100db610242565b6040516100e8919061080d565b60405180910390f35b61010b6004803603810190610106919061095d565b61026b565b005b61012760048036038101906101229190610688565b6103a6565b005b600260205280600052604060002060009150905080600001805461014c906109d5565b80601f0160208091040260200160405190810160405280929190818152602001828054610178906109d5565b80156101c55780601f1061019a576101008083540402835291602001916101c5565b820191906000526020600020905b8154815290600101906020018083116101a857829003601f168201915b5050505050908060010154908060020160009054906101000a900473ffffffffffffffffffffffffffffffffffffffff16905083565b610203610429565b61020d60006104a7565b565b60036020528060005260406000206000915054906101000a900473ffffffffffffffffffffffffffffffffffffffff1681565b60008060009054906101000a900473ffffffffffffffffffffffffffffffffffffffff16905090565b6001600081548092919061027e90610a35565b9190505550604051806060016040528082815260200160015481526020013373ffffffffffffffffffffffffffffffffffffffff16815250600260003373ffffffffffffffffffffffffffffffffffffffff1673ffffffffffffffffffffffffffffffffffffffff1681526020019081526020016000206000820151816000019080519060200190610311929190610573565b506020820151816001015560408201518160020160006101000a81548173ffffffffffffffffffffffffffffffffffffffff021916908373ffffffffffffffffffffffffffffffffffffffff1602179055509050507f7161dd7d3cb3183d4319c6c462ff67524f81b4da50166a27d2351392ede0736e816001543360405161039b93929190610776565b60405180910390a150565b6103ae610429565b600073ffffffffffffffffffffffffffffffffffffffff168173ffffffffffffffffffffffffffffffffffffffff160361041d576040517f08c379a000000000000000000000000000000000000000000000000000000000815260040161041490610aef565b60405180910390fd5b610426816104a7565b50565b61043161056b565b73ffffffffffffffffffffffffffffffffffffffff1661044f610242565b73ffffffffffffffffffffffffffffffffffffffff16146104a5576040517f08c379a000000000000000000000000000000000000000000000000000000000815260040161049c90610b5b565b60405180910390fd5b565b60008060009054906101000a900473ffffffffffffffffffffffffffffffffffffffff169050816000806101000a81548173ffffffffffffffffffffffffffffffffffffffff021916908373ffffffffffffffffffffffffffffffffffffffff1602179055508173ffffffffffffffffffffffffffffffffffffffff168173ffffffffffffffffffffffffffffffffffffffff167f8be0079c531659141344cd1fd0a4f28419497f9722a3daafe3b4186f6b6457e060405160405180910390a35050565b600033905090565b82805461057f906109d5565b90600052602060002090601f0160209004810192826105a157600085556105e8565b82601f106105ba57805160ff19168380011785556105e8565b828001600101855582156105e8579182015b828111156105e75782518255916020019190600101906105cc565b5b5090506105f591906105f9565b5090565b5b808211156106125760008160009055506001016105fa565b5090565b6000604051905090565b600080fd5b600080fd5b600073ffffffffffffffffffffffffffffffffffffffff82169050919050565b60006106558261062a565b9050919050565b6106658161064a565b811461067057600080fd5b50565b6000813590506106828161065c565b92915050565b60006020828403121561069e5761069d610620565b5b60006106ac84828501610673565b91505092915050565b600081519050919050565b600082825260208201905092915050565b60005b838110156106ef5780820151818401526020810190506106d4565b838111156106fe576000848401525b50505050565b6000601f19601f8301169050919050565b6000610720826106b5565b61072a81856106c0565b935061073a8185602086016106d1565b61074381610704565b840191505092915050565b6000819050919050565b6107618161074e565b82525050565b6107708161064a565b82525050565b600060608201905081810360008301526107908186610715565b905061079f6020830185610758565b6107ac6040830184610767565b949350505050565b6107bd8161074e565b81146107c857600080fd5b50565b6000813590506107da816107b4565b92915050565b6000602082840312156107f6576107f5610620565b5b6000610804848285016107cb565b91505092915050565b60006020820190506108226000830184610767565b92915050565b600080fd5b600080fd5b7f4e487b7100000000000000000000000000000000000000000000000000000000600052604160045260246000fd5b61086a82610704565b810181811067ffffffffffffffff8211171561088957610888610832565b5b80604052505050565b600061089c610616565b90506108a88282610861565b919050565b600067ffffffffffffffff8211156108c8576108c7610832565b5b6108d182610704565b9050602081019050919050565b82818337600083830152505050565b60006109006108fb846108ad565b610892565b90508281526020810184848401111561091c5761091b61082d565b5b6109278482856108de565b509392505050565b600082601f83011261094457610943610828565b5b81356109548482602086016108ed565b91505092915050565b60006020828403121561097357610972610620565b5b600082013567ffffffffffffffff81111561099157610990610625565b5b61099d8482850161092f565b91505092915050565b7f4e487b7100000000000000000000000000000000000000000000000000000000600052602260045260246000fd5b600060028204905060018216806109ed57607f821691505b602082108103610a00576109ff6109a6565b5b50919050565b7f4e487b7100000000000000000000000000000000000000000000000000000000600052601160045260246000fd5b6000610a408261074e565b91507fffffffffffffffffffffffffffffffffffffffffffffffffffffffffffffffff8203610a7257610a71610a06565b5b600182019050919050565b7f4f776e61626c653a206e6577206f776e657220697320746865207a65726f206160008201527f6464726573730000000000000000000000000000000000000000000000000000602082015250565b6000610ad96026836106c0565b9150610ae482610a7d565b604082019050919050565b60006020820190508181036000830152610b0881610acc565b9050919050565b7f4f776e61626c653a2063616c6c6572206973206e6f7420746865206f776e6572600082015250565b6000610b456020836106c0565b9150610b5082610b0f565b602082019050919050565b60006020820190508181036000830152610b7481610b38565b905091905056fea2646970667358221220dbd399ecb68949f8bc658380b70c067086ccc2462020e130a8eda9d311841d4964736f6c634300080d0033",
  "immutableReferences": {},
  "source": "// SPDX-License-Identifier: MIT\npragma solidity >=0.4.22 <0.9.0;\nimport \"@openzeppelin/contracts/access/Ownable.sol\";\n\ncontract PostFactory is Ownable {\n    uint256 postCounter;\n\n    mapping(address => Post) public posts;\n    mapping(uint256 => address) public postOwners;\n\n    struct Post {\n        string description;\n        uint256 id;\n        address owner;\n    }\n\n    event CreatedPost(string description, uint256 id, address owner);\n\n    function createPost(string memory _description) public {\n        postCounter++;\n        posts[msg.sender] = Post(_description, postCounter, msg.sender);\n        emit CreatedPost(_description, postCounter, msg.sender);\n    }\n}\n",
  "sourcePath": "C:\\Users\\andre\\OneDrive\\Escritorio\\Dev\\decentrablog\\contracts\\PostFactory.sol",
  "compiler": {
    "name": "solc",
    "version": "0.8.13+commit.abaa5c0e.Emscripten.clang"
  },
  "schemaVersion": "3.4.7",
  "updatedAt": "2022-07-02T16:22:54.871Z",
  "networkType": "ethereum",
  "devdoc": {
    "kind": "dev",
    "methods": {
      "owner()": {
        "details": "Returns the address of the current owner."
      },
      "renounceOwnership()": {
        "details": "Leaves the contract without owner. It will not be possible to call `onlyOwner` functions anymore. Can only be called by the current owner. NOTE: Renouncing ownership will leave the contract without an owner, thereby removing any functionality that is only available to the owner."
      },
      "transferOwnership(address)": {
        "details": "Transfers ownership of the contract to a new account (`newOwner`). Can only be called by the current owner."
      }
    },
    "version": 1
  },
  "userdoc": {
    "kind": "user",
    "methods": {},
    "version": 1
  }
}